{
  "contractName": "EtherWallet",
  "abi": [
    {
      "inputs": [
        {
          "internalType": "address",
          "name": "_owner",
          "type": "address"
        }
      ],
      "payable": false,
      "stateMutability": "nonpayable",
      "type": "constructor"
    },
    {
      "constant": true,
      "inputs": [],
      "name": "owner",
      "outputs": [
        {
          "internalType": "address",
          "name": "",
          "type": "address"
        }
      ],
      "payable": false,
      "stateMutability": "view",
      "type": "function"
    },
    {
      "constant": false,
      "inputs": [],
      "name": "deposit",
      "outputs": [],
      "payable": true,
      "stateMutability": "payable",
      "type": "function"
    },
    {
      "constant": false,
      "inputs": [
        {
          "internalType": "address payable",
          "name": "to",
          "type": "address"
        },
        {
          "internalType": "uint256",
          "name": "amount",
          "type": "uint256"
        }
      ],
      "name": "send",
      "outputs": [],
      "payable": false,
      "stateMutability": "nonpayable",
      "type": "function"
    },
    {
      "constant": true,
      "inputs": [],
      "name": "balanceOf",
      "outputs": [
        {
          "internalType": "uint256",
          "name": "",
          "type": "uint256"
        }
      ],
      "payable": false,
      "stateMutability": "view",
      "type": "function"
    }
  ],
  "bytecode": "0x608060405234801561001057600080fd5b506040516103363803806103368339818101604052602081101561003357600080fd5b8101908080519060200190929190505050806000806101000a81548173ffffffffffffffffffffffffffffffffffffffff021916908373ffffffffffffffffffffffffffffffffffffffff160217905550506102a2806100946000396000f3fe60806040526004361061003f5760003560e01c8063722713f7146100445780638da5cb5b1461006f578063d0679d34146100c6578063d0e30db014610121575b600080fd5b34801561005057600080fd5b5061005961012b565b6040518082815260200191505060405180910390f35b34801561007b57600080fd5b50610084610133565b604051808273ffffffffffffffffffffffffffffffffffffffff1673ffffffffffffffffffffffffffffffffffffffff16815260200191505060405180910390f35b3480156100d257600080fd5b5061011f600480360360408110156100e957600080fd5b81019080803573ffffffffffffffffffffffffffffffffffffffff16906020019092919080359060200190929190505050610158565b005b61012961026b565b005b600047905090565b6000809054906101000a900473ffffffffffffffffffffffffffffffffffffffff1681565b6000809054906101000a900473ffffffffffffffffffffffffffffffffffffffff1673ffffffffffffffffffffffffffffffffffffffff163373ffffffffffffffffffffffffffffffffffffffff1614156101f9578173ffffffffffffffffffffffffffffffffffffffff166108fc829081150290604051600060405180830381858888f193505050501580156101f3573d6000803e3d6000fd5b50610267565b6040517f08c379a00000000000000000000000000000000000000000000000000000000081526004018080602001828103825260158152602001807f73656e646572206973206e6f7420616c6c6f776564000000000000000000000081525060200191505060405180910390fd5b5050565b56fea265627a7a723158206a3834d2d2fa766aec7b60663d6632de965bfdf67367b75939b824f88c57cb8764736f6c63430005100032",
  "source": "pragma solidity ^0.5.0;\n\ncontract EtherWallet {\n\n    address public owner;\n    \n    constructor(address _owner) public {\n        owner = _owner;\n    }\n\n    function deposit() payable public {\n    }\n\n    // payable in this context is different than above, it simply means a different data type for address.\n    function send(address payable to, uint amount) public {\n        // address data type has a built in function \"transfer\" to transfer eth\n        if(msg.sender == owner) {\n            to.transfer(amount);\n            return;\n        }\n        revert('sender is not allowed');\n    }\n\n    function balanceOf() view public returns(uint) {\n        // in this function we have to wrap 'this.balance' in the address function to transform the data to be returned\n        return address(this).balance;\n    }\n}",
  "sourcePath": "/Users/andrewrudnick/Documents/GitHub/dapp-30/day-6-ether-wallet/contracts/EtherWallet.sol",
  "compiler": {
    "name": "solc",
    "version": "0.5.16+commit.9c3226ce.Emscripten.clang"
  },
  "schemaVersion": "3.3.4",
  "updatedAt": "2023-03-20T20:51:49.295Z",
  "networkType": "ethereum",
  "devdoc": {
    "methods": {}
  },
  "userdoc": {
    "methods": {}
  }
}